:020000040800F2
:1000000000500020791B0008811A0008891A000896
:10001000911A0008991A0008A11A000800000000AF
:10002000000000000000000000000000A91A000805
:10003000B51A000800000000C11A0008CD1A000817
:10004000C11B0008C11B0008C11B0008C11B000820
:10005000C11B0008C11B0008C11B0008C11B000810
:10006000C11B0008C11B0008C11B0008C11B000800
:10007000C11B0008C11B0008C11B0008C11B0008F0
:10008000C11B0008C11B0008C11B0008C11B0008E0
:10009000C11B0008C11B0008C11B0008C11B0008D0
:1000A000C11B0008C11B0008C11B0008C11B0008C0
:1000B000D91A0008C11B0008C11B0008C11B000899
:1000C000C11B0008C11B0008C11B0008C11B0008A0
:1000D000C11B0008C11B0008ED1A0008C11B000865
:1000E000C11B0008C11B0008C11B00080000000064
:1000F0000000000000000000000000000000000000
:0C01000000000000000000005FF808F1A3
:10010C0010B5054C237833B9044B13B10448AFF345
:10011C0000800123237010BDD800002000000000D7
:10012C007853000808B5034B1BB103490348AFF3E0
:10013C00008008BD00000000DC000020785300089F
:10014C0010F8012B11F8013B012A28BF9A42F7D075
:10015C00D01A7047034613F8012B002AFBD1181A4A
:10016C000138704780B483B000AF7860094A7B686F
:10017C0052F82330012B06D1064A7B68002142F845
:10018C002310012300E0002318460C37BD4680BC29
:10019C00704700BFF400002080B483B000AF7860DB
:1001AC00094A7B6852F82330012B06D1064A7B683A
:1001BC00002142F82310012300E0002318460C37DD
:1001CC00BD4680BC704700BF0801002080B582B0DE
:1001DC0000AF00237B607BE0424A7B6852F823200F
:1001EC0041497B6841F82320404A7B6852F8232020
:1001FC003C497B6841F823204FF480713C4802F065
:10020C00A5F803461A46394B1A604FF4007138486A
:10021C0002F09CF803461A46344B5A60314A7B680C
:10022C0052F8232031497B6851F823309A424CD143
:10023C002C4A7B6852F823202B497B6851F82330D9
:10024C009A4242D1284A7B6852F8232029497B687C
:10025C0051F823309A4218D0234A7B6852F8232055
:10026C0024497B6841F82320224A7B6852F82330CA
:10027C00002B2AD1204A7B68C82142F823101F4A40
:10028C007B68012142F823101FE01A4A7B6852F860
:10029C002330002B19D1184A7B6852F82330002BDD
:1002AC0009DD154A7B6852F823305A1E12497B68C7
:1002BC0041F8232009E0124A7B68012142F82310FF
:1002CC000D4A7B68C82142F823107B6801337B60A0
:1002DC0005227B689342FFF67FAF00BF00BF083753
:1002EC00BD4680BD14000020280000200000002026
:1002FC00000801403C00002050000020F4000020C9
:10030C000801002080B594B000AF994B1B680D2BF1
:10031C006AD801A252F823F05D030008F503000827
:10032C00F5030008F5030008F5030008F5030008C1
:10033C00F5030008F5030008F5030008F5030008B1
:10034C00F503000875030008BD030008D903000875
:10035C0000F026FD864B0B221A60864B1B68864AE2
:10036C00136000F05CFE46E000F03CFD824B1B6825
:10037C00002B06D17E4B0D221A60804B1B687E4AE7
:10038C0013600020FFF708FF0346012B2ED100F06D
:10039C0007FD00F015FD764B15221A60784B1522DF
:1003AC001A60754B64221A60764B01221A601DE0AC
:1003BC0000F028FD704B1B68002B19D16C4B0B22E5
:1003CC001A606C4B1B686C4A136011E000F02AFD3C
:1003DC00694B1B68002B0DD1654B0C221A606A4BC4
:1003EC001B68654A136005E000BF04E000BF02E033
:1003FC0000BF00E000BF624B1B680D2B52D801A25E
:10040C0052F823F049040008B1040008B1040008B4
:10041C00B1040008B1040008B1040008B1040008DC
:10042C00B1040008B1040008B1040008B1040008CC
:10043C005D040008790400089504000800F0C0FC75
:10044C004F4B0D221A604D4B1B684E4A136030E027
:10045C0000F0F8FC4B4B1B68002B25D1484B0D22B0
:10046C001A60464B1B68474A13601DE000F0FCFC09
:10047C00444B1B68002B19D1414B0B221A603D4B8E
:10048C001B68404A136011E000F000FD3D4B1B68F7
:10049C00002B0DD13A4B0C221A603B4B1B68394A8E
:1004AC00136005E000BF04E000BF02E000BF00E005
:1004BC0000BF2F4B1B680A3B092B08D82E4B1B681F
:1004CC00002B04DD2C4B1B68013B2B4A13602C4B7F
:1004DC001B680A3B092B08D82A4B1B68002B04DD30
:1004EC00284B1B68013B274A1360214B1B680A3BB6
:1004FC00092B00F2CF80254B1B68002B40F3CA80E0
:10050C00224B1B68013B214A1360204B1B68002BBC
:10051C0040F0C0801D4B0A221A6000F080FD0021C3
:10052C00012000F083FD124B1B680B2B0DD1124BDD
:10053C001B68174A82FB03129210DB17D21A3B4638
:10054C001449184604F052FA35E0094B1B680C2B81
:10055C0024D1094B1B680E4A82FB03129210DB1745
:10056C00D21A3B460C49184604F040FA23E000BF6F
:10057C0028010020680000203001002070000020BD
:10058C002C010020340100206C000020740000209D
:10059C0067666666905300089C5300083F4B1B68C7
:1005AC003F4A82FB03129210DB17D21A3B463D499D
:1005BC00184604F01BFA3B46184600F01BFD0021C0
:1005CC00002000F033FD384B1B680B2B0ED1374B42
:1005DC001B68334A82FB03129210DB17D21A07F105
:1005EC0028033349184604F001FA20E02E4B1B680F
:1005FC000C2B0ED12D4B1B68294A82FB0312921037
:10060C00DB17D21A07F128032A49184604F0EEF931
:10061C000DE0264B1B68224A82FB03129210DB175B
:10062C00D21A07F128032449184604F0DFF907F120
:10063C002803184600F0DEFC3B461846FFF78AFDFF
:10064C0003461A463B4613441C4A1068186007F1CF
:10065C0028023B461146184604F0F0F93B46184672
:10066C00FFF778FD03461A463B461344144A11889B
:10067C00927819809A70134B1B68012B0AD13B4658
:10068C001846FFF767FD03469AB2394664230E48B5
:10069C0003F092FB00BF5037BD4680BD30010020F7
:1006AC0067666666AC5300082C01002034010020FC
:1006BC00BC530008C8530008D8530008E85300087E
:1006CC00EC53000838010020DC01002080B58AB012
:1006DC0000AF824B1B68153B032B00F2F78001A285
:1006EC0052F823F00107000875070008EF0700080F
:1006FC006108000800F076FB00F0C8FB784B1B6823
:10070C00002B05D00020FFF747FD0346012B0DD130
:10071C00744B1B68724A1360734B1B68734A1360EB
:10072C006E4B0B221A60724B0D221A600020FFF7E1
:10073C0019FD0346012B04D06E4B1B68002B00F0F7
:10074C00C7806C4B00221A60644B16221A606A4BED
:10075C001A6813469B0013445B001A46604B1A60E0
:10076C00624B01221A60B3E000F03CFB00F07CFB12
:10077C005B4B1B68002B05D00020FFF70DFD0346DB
:10078C00012B10D1574B1A68574B1B68D31A544A7C
:10079C0013605A4B1B68554A1360504B0B221A605E
:1007AC00534B0C221A600020FFF7DCFC0346012B94
:1007BC0004D0504B1B68002B00F08C804D4B00225A
:1007CC001A60464B17221A604B4B1A6813469B0053
:1007DC0013445B001A46424B1A60444B01221A60C8
:1007EC0078E000F01FFB00F02DFB3D4B1B68002B4D
:1007FC0005D00020FFF7D0FC0346012B0DD13A4B5E
:10080C001B68374A1360374B1B68384A1360334BED
:10081C000D221A60364B0B221A600020FFF7A2FC47
:10082C000346012B03D0334B1B68002B54D0314BA8
:10083C0000221A60294B18221A602F4B1A68134693
:10084C009B0013445B001A46254B1A60274B012270
:10085C001A6041E000F0D6FA00F0F4FA204B1B6865
:10086C00002B05D00020FFF797FC0346012B10D17D
:10087C00224B1B681A4A13601A4B1A681A4B1B68D6
:10088C00D31A1A4A1360154B0C221A60184B0B2200
:10089C001A600020FFF766FC0346012B03D0154BB2
:1008AC001B68002B2CD0134B00221A600B4B15220B
:1008BC001A60114B1A6813469B0013445B001A46CE
:1008CC00074B1A60094B01221A6019E000BF18E0AF
:1008DC0000BF16E000BF14E000BF12E028010020AA
:1008EC00300100206800002070000020340100203E
:1008FC002C0100203C010020780000206C0000201E
:10090C0000BF264B1B68143B092B08D8244B1B68D3
:10091C00002B04DD224B1B68013B214A13601F4B4B
:10092C001B68143B092B35D81E4B1B68002B31DD83
:10093C001C4B1B68013B1B4A13601A4B1B68002B9A
:10094C0028D1184B0A221A6000F069FB0021012003
:10095C0000F06CFB07F114031349184604F046F839
:10096C0007F11403184600F045FB0021002000F0AD
:10097C005DFB0B4B1B680D4A82FB03129210DB17BD
:10098C00D21A3B460A49184604F030F83B46184642
:10099C0000F030FB00BF2837BD4680BD2801002089
:1009AC003001002074000020F05300086766666672
:1009BC000054000880B58AB000AF7D4B1B681E3B0D
:1009CC00092B1CD90120FFF7E7FB0346002B16D09F
:1009DC00784B0A221A60764B1F221A60764B1F2224
:1009EC001A60764B02221A60754B1B68754A1360AD
:1009FC0000F0D6F900F0E4F9734B01221A606C4B4D
:100A0C001B68212B00F0EC80212B00F348811F2B5D
:100A1C0002D0202B6AD042E1664B1B68002B13D10D
:100A2C00644B0A221A602021684801F0BEFC0821A0
:100A3C00664801F0BAFC4FF48061644801F0B5FCE3
:100A4C001021624801F0B1FC0120FFF7A5FB034621
:100A5C00012B21D1564B20221A60584B03221A60CD
:100A6C005B4B1B68574A136000222021574801F04A
:100A7C0084FC00220821554801F07FFC00224FF431
:100A8C008061524801F079FC002210214F4801F09E
:100A9C0074FC4D4B01221A600020FFF763FB0346E8
:100AAC00012B10D1474B1B680A33464A1360454B48
:100ABC001B6840F2DE32934202DD424B0A221A607E
:100ACC00414B01221A600120FFF74CFB0346012B1E
:100ADC0040F0E7803B4B1B683E4A1360354B1E22AF
:100AEC001A6000F07FF900F0ADF9DAE0314B1B68C9
:100AFC00002B0BD12F4B0A221A602021334801F016
:100B0C0054FC4FF48061314801F04FFC0120FFF799
:100B1C0043FB0346012B21D1254B21221A60274B85
:100B2C0004221A602C4B1B68264A136000222021D9
:100B3C00264801F022FC00220821244801F01DFC6B
:100B4C0000224FF48061214801F017FC0022102193
:100B5C001E4801F012FC1C4B01221A600020FFF70A
:100B6C0001FB0346012B10D1164B1B680A33154AA7
:100B7C001360144B1B6840F2DE32934202DD114BC2
:100B8C000A221A60104B01221A600120FFF7EAFAC0
:100B9C000346012B40F087800A4B1B680F4A1360F9
:100BAC00044B1E221A6000F02DF900F05DF97AE07A
:100BBC0028010020740000202C01002030010020AE
:100BCC00680000203401002064000020000C01406B
:100BDC006C0000201C01002070000020200100206F
:100BEC005D4B1B68002B0AD15B4B0A221A60082153
:100BFC005A4801F0DAFB1021584801F0D6FB0120CD
:100C0C00FFF7CAFA0346012B20D1554B1A68554BF6
:100C1C001B681A44544B1B689A420BD1524B1B68ED
:100C2C00524A13604F4B1B68514A13604C4B1B6864
:100C3C00504A1360504B00221A60504B00221A602D
:100C4C004F4B00221A604F4B00221A600020FFF716
:100C5C0089FA0346012B10D14A4B1B680A33494AC7
:100C6C001360484B1B6840F2DE32934202DD454B69
:100C7C000A221A60444B01221A600120FFF772FA13
:100C8C000346012B11D13F4B1B68354A1360324B85
:100C9C001E221A6000F0C6F800F0F8F805E000BF5C
:100CAC0004E000BF02E000BF00E000BF324B1B6855
:100CBC001E3B092B08D8284B1B68002B04DD264B48
:100CCC001B68013B244A13602B4B1B681E3B092BF2
:100CDC003ED82D4B1B68012B3AD100F0A0F92A4BC2
:100CEC0000221A60244B1B681F2B06D107F114033A
:100CFC002649184603F07AFE10E01F4B1B68212B87
:100D0C0006D107F114032249184603F06FFE05E0E3
:100D1C0007F114031F49184603F068FE07F114038A
:100D2C00184600F067F90021002000F07FF9154B00
:100D3C001B68194A82FB03129210DB17D21A3B462E
:100D4C001649184603F052FE3B46184600F052F97D
:100D5C0000BF2837BD4680BD74000020000C014048
:100D6C0024010020200100201C010020680000202C
:100D7C006C00002070000020280100202C010020B5
:100D8C0030010020340100206400002010540008C1
:100D9C002054000830540008676666664454000806
:100DAC0080B500AF00222021044801F0E6FA0022B1
:100DBC000821024801F0E1FA00BF80BD000C01409F
:100DCC0080B500AF00224FF48061054801F0D5FAE0
:100DDC0000221021024801F0D0FA00BF80BD00BFF4
:100DEC00000C014080B500AF01222021044801F025
:100DFC00C4FA01220821024801F0BFFA00BF80BDED
:100E0C00000C014080B500AF01222021044801F004
:100E1C00B4FA00220821024801F0AFFA00BF80BDED
:100E2C00000C014080B500AF00222021044801F0E5
:100E3C00A4FA01220821024801F09FFA00BF80BDEC
:100E4C00000C014080B500AF01224FF480610548D1
:100E5C0001F093FA01221021024801F08EFA00BF32
:100E6C0080BD00BF000C014080B500AF01224FF4E3
:100E7C008061054801F081FA00221021024801F03E
:100E8C007CFA00BF80BD00BF000C014080B500AFF4
:100E9C0000224FF48061054801F06FFA0122102105
:100EAC00024801F06AFA00BF80BD00BF000C01408F
:100EBC0080B500AF2021024801F077FA00BF80BD59
:100ECC000008014080B500AFFFF774FDFFF7FEFB93
:100EDC00FFF718FA00BF80BD80B586B002AF03469D
:100EEC00FB71FB7923F00F03FB73FB791B01BB73C5
:100EFC00FB7B43F00C03DBB23B72FB7B43F0080340
:100F0C00DBB27B72BB7B43F00C03DBB2BB72BB7BF3
:100F1C0043F00803DBB2FB7207F108026423009371
:100F2C0004234221034801F09DFB00BF1037BD464E
:100F3C0080BD00BF4001002080B586B002AF0346E3
:100F4C00FB71FB7923F00F03FB73FB791B01BB7364
:100F5C00FB7B43F00D03DBB23B72FB7B43F00903DD
:100F6C00DBB27B72BB7B43F00D03DBB2BB72BB7B92
:100F7C0043F00903DBB2FB7207F108026423009310
:100F8C0004234221034801F06DFB00BF1037BD461E
:100F9C0080BD00BF4001002080B500AF3320FFF7BB
:100FAC009BFF3220FFF798FF322000F067FE2820CD
:100FBC00FFF792FF322000F061FE0120FFF78CFF5B
:100FCC00322000F05BFE0620FFF786FF322000F097
:100FDC0055FE0C20FFF780FF322000F04FFE022060
:100FEC00FFF77AFF322000F049FE8020FFF774FFF4
:100FFC0000BF80BD80B582B000AF786006E07B6832
:10100C005A1C7A601B781846FFF796FF7B681B7892
:10101C00002BF4D100BF00BF0837BD4680BD80B5A2
:10102C0000AF0120FFF758FF00BF80BD80B584B032
:10103C0000AF786039607B68012B08D17B68DAB22D
:10104C003B68DBB21344DBB27F33FB7308E03B68D5
:10105C00DBB24033DBB25BB263F07F035BB2FB739A
:10106C00FB7B1846FFF738FF00BF1037BD4680BD2D
:10107C0080B500AF00F0A0FD00F02CF800F00AF9EC
:10108C0000F064F800F090F800F0DAF8FFF784FF55
:10109C000B4802F09FFA01220A490B4802F017FF95
:1010AC0000F030FA4FF47A720021084800F0B4FADC
:1010BC0064220021064800F0AFFA00F05BFBFCE76D
:1010CC009401002028020020DC010020BD0E000845
:1010DC00D10E000880B590B000AF07F1180328229C
:1010EC000021184603F0A2FC3B1D00221A605A6036
:1010FC009A60DA601A610223BB610123BB62102380
:10110C00FB6200237B6307F11803184601F002FE13
:10111C000346002B01D000F0EFF90F237B60002376
:10112C00BB600023FB6000233B6100237B613B1D04
:10113C000021184602F070F80346002B01D000F095
:10114C00DBF900BF4037BD4680BD000080B500AF65
:10115C00124B134A1A60114B124A5A600F4B002261
:10116C009A600E4B0022DA600C4B4FF480421A61ED
:10117C000A4B00225A61094B00229A61074B00224C
:10118C00DA61064B00221A62044801F027F9034683
:10119C00002B01D000F0B0F900BF80BD4001002051
:1011AC0000540040A086010080B586B000AF07F166
:1011BC00080300221A605A609A60DA603B460022EB
:1011CC001A605A601D4B4FF080421A601B4B41F65F
:1011DC003F725A60194B00229A60184B0922DA6050
:1011EC00164B00221A61154B00229A61134802F02B
:1011FC00A1F90346002B01D000F07EF94FF4805387
:10120C00BB6007F1080319460C4802F025FB0346A6
:10121C00002B01D000F070F900233B6000237B60B1
:10122C003B461946054802F007FD0346002B01D04A
:10123C0000F062F900BF1837BD4680BD9401002054
:10124C0080B500AF114B124A1A60104B4FF4165276
:10125C005A600E4B00229A600C4B0022DA600B4B4A
:10126C0000221A61094B0C225A61084B00229A6128
:10127C00064B0022DA61054802F04EFD0346002BB6
:10128C0001D000F039F900BF80BD00BFDC010020A7
:10129C000044004080B586B000AF07F1080300227F
:1012AC001A605A609A60DA60284B9B69274A43F0AF
:1012BC0004039361254B9B6903F004037B607B68FB
:1012CC00224B9B69214A43F0080393611F4B9B6996
:1012DC0003F008033B603B68002220211C4801F00E
:1012EC004CF800224FF487611A4801F046F820238D
:1012FC00BB600123FB6000233B6102237B6107F190
:10130C0008031946124800F09DFE4FF48763BB603A
:10131C000123FB6000233B6102237B6107F108037F
:10132C0019460C4800F08EFE4FF44073BB6000234E
:10133C00FB6001233B6107F108031946044800F0E8
:10134C0081FE00BF1837BD4680BD00BF00100240B3
:10135C0000080140000C014080B582B000AF7860FD
:10136C0000F0EAF8FEF732FF00BF0837BD4680BD3B
:10137C0080B584B000AF78607B681B684B4A9342A1
:10138C0040F090804A4B1B78002B0CD10023FB7350
:10139C0006E0FB7B474A0021D154FB7B0133FB73F6
:1013AC00FB7B632BF5D9444B1B780D2B0BD0404B9F
:1013BC001B785A1CD1B23E4A11701A463E4B197812
:1013CC003C4B99545FE03A4B00221A703B4B012284
:1013DC001A70642302223A493A4802F0EDFC3A4969
:1013EC003448FEF7ADFE0346002B03D1374B0122E8
:1013FC001A6048E036492F48FEF7A2FE0346002B40
:10140C0003D1324B00221A603DE032492948FEF7E5
:10141C0097FE0346002B10D1FFF7C2FCFFF7D0FC60
:10142C002D4B15221A602D4B15221A602C4B642261
:10143C001A602C4B01221A6025E02B491D48FEF73F
:10144C007FFE0346002B08D1234B00221A60234B4E
:10145C0000221A60FFF7E3FD15E01F4B1B68143BDD
:10146C00132B0AD821491348FEF76AFE0346002BBA
:10147C0003D11F4B01221A6005E064230E221D4983
:10148C00104802F099FC01220B490E4802F01FFD96
:10149C000948FEF75FFE03469AB2642306490948E1
:1014AC0002F08AFC00BF1037BD4680BD00440040EE
:1014BC002402002030020020280200209402002088
:1014CC0050540008DC01002054540008380100205E
:1014DC006054000864540008280100202C010020EE
:1014EC0030010020340100206C54000874540008B2
:1014FC003C0100207854000880B400AF72B600BFE5
:10150C0000BFFDE780B582B000AF0023FB7106E0A1
:10151C00FB79184600F0E6F8FB790133FB71FB7997
:10152C00272BF5D9034B00221A7000BF0837BD4694
:10153C0080BD00BFB805002080B483B000AF00238D
:10154C007B605DE033497A6813469B0013449B0033
:10155C000B441B68002B50D02E497A6813469B0015
:10156C0013449B000B4404331B68002B32D12949D4
:10157C007A6813469B0013449B000B440C331B7876
:10158C000133D8B223497A6813469B0013449B005D
:10159C000B440C3302461A701E497A6813469B00A2
:1015AC0013449B000B4408331B68002B25D01949AE
:1015BC007A6813469B0013449B000B44083319684C
:1015CC0014487A6813469B0013449B00034404336D
:1015DC00196012E00F497A6813469B0013449B0074
:1015EC000B4404331B68591E0A487A6813469B0047
:1015FC0013449B000344043319607B6801337B6004
:10160C007B68272B9ED900BF00BF0C37BD4680BC22
:10161C00704700BF9802002080B487B000AFF8601C
:10162C00B9607A6000237B6102E07B6901337B61E6
:10163C0029497A6913469B0013449B000B441B6891
:10164C00002B02D07B69272BEFD97B69282B04D187
:10165C00224B01221A70282339E01F497A6913465C
:10166C009B0013449B000B44FA681A60BB681C4A2D
:10167C00A2FB0323D90818487A6913469B0013442C
:10168C009B000344043319607B68154AA2FB0323B7
:10169C00D90811487A6913469B0013449B000344F4
:1016AC00083319600C497A6913469B0013449B005C
:1016BC000B440C3300221A7007497A6913469B00BD
:1016CC0013449B000B4410337A691A607B691846EB
:1016DC001C37BD4680BC704798020020B80500201E
:1016EC00CDCCCCCC80B485B000AF78601F497A6883
:1016FC0013469B0013449B000B441B68002B05D125
:10170C001B4B08221A70FF23FB7301E00023FB73B1
:10171C0016497A6813469B0013449B000B44002225
:10172C001A6012497A6813469B0013449B000B44C1
:10173C00043300221A600D497A6813469B00134447
:10174C009B000B44083300221A6008497A68134640
:10175C009B0013449B000B440C3300221A70FB7B40
:10176C0018461437BD4680BC704700BF9802002055
:10177C00B805002080B582B000AF0023FB7139E0C2
:10178C00FA79214913469B0013449B000B440C33FC
:10179C001B78002B2BD0FA791B4913469B00134462
:1017AC009B000B441B689847FA79174913469B001A
:1017BC0013449B000B440C331B78013BD8B21249E9
:1017CC0013469B0013449B000B440C3302461A70C7
:1017DC00FA790D4913469B0013449B000B440833C4
:1017EC001B68002B03D1FB791846FFF77BFFFB79B5
:1017FC000133FB71FB79272BC2D900F007F800BF2E
:10180C000837BD4680BD00BF9802002080B400AFF1
:10181C00184B1A78184B1B789A4216D0154B1B781C
:10182C00DB43DAB2154B1A70124B1A78124B1A7042
:10183C00104B1B78002B04D0114B4EF660221A6013
:10184C0013E00F4B00221A600FE00D4B1B68002BAE
:10185C000BD00B4B1B68013B094A1360084B1B68F0
:10186C00002B02D1034B00221A7000BFBD4680BC76
:10187C00704700BFB8050020BA050020B90500204C
:10188C00BC05002080B485B000AF154B9B69144A91
:10189C0043F001039361124B9B6903F00103BB609E
:1018AC00BB680F4BDB690E4A43F08053D3610C4B82
:1018BC00DB6903F080537B607B680A4B5B68FB60E1
:1018CC00FB6823F0E063FB60FB6843F08063FB6024
:1018DC00044AFB68536000BF1437BD4680BC704798
:1018EC00001002400000014080B58AB000AF786063
:1018FC0007F1140300221A605A609A60DA607B6860
:10190C001B681D4A934232D11C4B9B691B4A43F006
:10191C0008039361194B9B6903F008033B613B6916
:10192C004FF440737B611223BB6103233B6207F1CD
:10193C0014031946124800F085FB124B5B687B625E
:10194C007B6A43F0E0637B627B6A43F002037B6259
:10195C000C4A7B6A5360094BDB69084A43F4001359
:10196C00D361064BDB6903F40013FB60FB6800BF1B
:10197C002837BD4680BD00BF005400400010024017
:10198C00000C01400000014080B584B000AF7860CD
:10199C007B681B68B3F1804F13D10C4BDB690B4A8E
:1019AC0043F00103D361094BDB6903F00103FB60D6
:1019BC00FB68002200211C2000F05BFA1C2000F0C8
:1019CC0074FA00BF1037BD4680BD00BF0010024046
:1019DC0080B588B000AF786007F1100300221A6060
:1019EC005A609A60DA607B681B681F4A934237D151
:1019FC001E4BDB691D4A43F40033D3611B4BDB697F
:101A0C0003F40033FB60FB68184B9B69174A43F0E7
:101A1C0004039361154B9B6903F00403BB60BB6823
:101A2C0004233B6102237B610323FB6107F1100359
:101A3C0019460F4800F006FB08233B6100237B612D
:101A4C000023BB6107F110031946094800F0FAFAAC
:101A5C0000220021262000F00CFA262000F025FAA6
:101A6C0000BF2037BD4680BD00440040001002403E
:101A7C000008014080B400AF00BFFDE780B400AFA8
:101A8C0000BFFDE780B400AF00BFFDE780B400AF3E
:101A9C0000BFFDE780B400AF00BFFDE780B400AF2E
:101AAC0000BFBD4680BC704780B400AF00BFBD46D0
:101ABC0080BC704780B400AF00BFBD4680BC70478F
:101ACC0080B500AF00F0BEF800BF80BD80B500AFA0
:101ADC00024801F0D1FD00BF80BD00BF9401002081
:101AEC0080B500AF024802F017FA00BF80BD00BFFE
:101AFC00DC01002080B586B000AF7860144A154B2D
:101B0C00D31A7B617B693B61134B1B68002B02D1A1
:101B1C00114B124A1A60104B1A687B6813443A69CD
:101B2C009A4207D202F09AFF03460C221A604FF039
:101B3C00FF3309E0084B1B68FB60074B1A687B6896
:101B4C001344054A1360FB6818461837BD4680BD20
:101B5C000050002000040000C005002010070020E9
:101B6C0080B400AF00BFBD4680BC7047FFF7F8FFE4
:101B7C000B480C490C4A002302E0D458C4500433DF
:101B8C00C4188C42F9D3094A094C002301E01360B4
:101B9C000432A242FBD302F067FFFFF769FA7047E9
:101BAC0000000020D8000020F8540008D8000020C5
:101BBC0010070020FEE7000080B500AF084B1B6843
:101BCC00074A43F010031360032000F047F90F207D
:101BDC0000F008F8FFF756FE0023184680BD00BF42
:101BEC000020024080B582B000AF7860124B1A68BA
:101BFC00124B1B7819464FF47A73B3FBF1F3B2FB1B
:101C0C00F3F3184600F05FF90346002B01D00123D3
:101C1C000EE07B680F2B0AD8002279684FF0FF305A
:101C2C0000F027F9064A7B681360002300E00123CB
:101C3C0018460837BD4680BD7C000020840000207B
:101C4C008000002080B400AF054B1B781A46054B72
:101C5C001B681344034A136000BFBD4680BC704729
:101C6C0084000020C405002080B400AF024B1B6828
:101C7C001846BD4680BC7047C405002080B584B0B2
:101C8C0000AF7860FFF7F0FFB8607B68FB60FB6823
:101C9C00B3F1FF3F05D00A4B1B781A46FB6813447F
:101CAC00FB6000BFFFF7E0FF0246BB68D31AFA687F
:101CBC009A42F7D800BF00BF1037BD4680BD00BFA9
:101CCC008400002080B485B000AF78607B6803F09E
:101CDC000703FB600C4BDB68BB60BA684FF6FF0375
:101CEC001340BB60FB681A02BB68134343F0BF632D
:101CFC0043F40033BB60044ABB68D36000BF1437A5
:101D0C00BD4680BC704700BF00ED00E080B400AF62
:101D1C00044BDB681B0A03F007031846BD4680BC66
:101D2C00704700BF00ED00E080B483B000AF034605
:101D3C00FB7197F90730002B0BDBFB7903F01F02CB
:101D4C00064997F907305B09012000FA02F241F8C5
:101D5C00232000BF0C37BD4680BC704700E100E07B
:101D6C0080B483B000AF03463960FB7197F907303C
:101D7C00002B0ADB3B68DAB20C4997F907301201E9
:101D8C00D2B20B4483F800230AE03B68DAB208496C
:101D9C00FB7903F00F03043B1201D2B20B441A7609
:101DAC0000BF0C37BD4680BC704700BF00E100E0AF
:101DBC0000ED00E080B489B000AFF860B9607A60E3
:101DCC00FB6803F00703FB61FB69C3F10703042BFA
:101DDC0028BF0423BB61FB690433062B02D9FB69C2
:101DEC00033B00E000237B614FF0FF32BB6902FA3A
:101DFC0003F3DA43BB681A407B699A404FF0FF311A
:101E0C007B6901FA03F3D9437B680B4013431846F3
:101E1C002437BD4680BC704780B582B000AF786077
:101E2C007B68013BB3F1807F01D301230FE00A4AA9
:101E3C007B68013B53600F214FF0FF30FFF790FFA1
:101E4C00054B00229A60044B07221A6000231846A7
:101E5C000837BD4680BD00BF10E000E080B582B001
:101E6C0000AF78607868FFF72DFF00BF0837BD46DC
:101E7C0080BD80B586B000AF0346B9607A60FB7355
:101E8C0000237B61FFF742FF78617A68B968786953
:101E9C00FFF790FF024697F90F3011461846FFF7EF
:101EAC005FFF00BF1837BD4680BD80B582B000AF64
:101EBC000346FB7197F907301846FFF735FF00BF53
:101ECC000837BD4680BD80B582B000AF78607868B9
:101EDC00FFF7A2FF034618460837BD4680BD80B405
:101EEC0085B000AF78600023FB737B6893F82130DA
:101EFC00DBB2022B08D07B6804229A637B68002239
:101F0C0083F82020012320E07B681B681A687B681B
:101F1C001B6822F00E021A607B681B681A687B68CB
:101F2C001B6822F001021A607B681A6C7B68DB6B01
:101F3C00012101FA02F25A607B68012283F8212008
:101F4C007B68002283F82020FB7B18461437BD46A3
:101F5C0080BC704780B584B000AF78600023FB7301
:101F6C007B6893F82130DBB2022B05D07B6804220E
:101F7C009A630123FB7351E07B681B681A687B68CA
:101F8C001B6822F00E021A607B681B681A687B685B
:101F9C001B6822F001021A607B681B68224A93427C
:101FAC0029D07B681B68214A934222D07B681B682E
:101FBC001F4A93421AD07B681B681E4A934212D068
:101FCC007B681B681C4A93420AD07B681B681B4ABF
:101FDC00934202D14FF480130EE04FF080730BE06C
:101FEC004FF4803308E04FF4805305E04FF48073D6
:101FFC0002E0102300E00123114A53607B680122A8
:10200C0083F821207B68002283F820207B685B6B9F
:10201C00002B03D07B685B6B78689847FB7B18467A
:10202C001037BD4680BD00BF080002401C000240B6
:10203C003000024044000240580002406C00024054
:10204C000000024080B48BB000AF78603960002390
:10205C007B6200233B6269E101227B6A02FA03F393
:10206C00FB613B681B68FA691340BB61BA69FB6989
:10207C009A4240F058813B685B689A4A93425ED022
:10208C00984A934275D8984A934258D0964A9342AC
:10209C006FD8964A934252D0944A934269D8944A44
:1020AC0093424CD0924A934263D8924A934246D080
:1020BC00904A93425DD8122B2AD8122B59D801A2E0
:1020CC0052F823F04B210008252100083721000885
:1020DC00792100087F2100087F2100087F2100085A
:1020EC007F2100087F2100087F2100087F21000844
:1020FC007F2100087F2100087F2100087F21000834
:10210C007F2100087F2100082D21000841210008B3
:10211C00794A934213D02CE03B68DB683B6229E0A0
:10212C003B68DB6804333B6224E03B68DB680833C4
:10213C003B621FE03B68DB680C333B621AE03B6898
:10214C009B68002B02D104233B6213E03B689B6825
:10215C00012B05D108233B627B68FA691A6109E0FF
:10216C0008233B627B68FA695A6103E000233B62F7
:10217C0000E000BFBB69FF2B01D87B6801E07B68E6
:10218C0004337B61BB69FF2B02D87B6A9B0002E0A6
:10219C007B6A083B9B003B617B691A680F213B699A
:1021AC0001FA03F3DB431A40396A3B6901FA03F382
:1021BC001A437B691A603B685B6803F08053002B01
:1021CC0000F0B1804D4B9B694C4A43F00103936185
:1021DC004A4B9B6903F00103BB60BB68484A7B6AAE
:1021EC009B08023352F82330FB607B6A03F0030335
:1021FC009B000F2202FA03F3DB43FA681340FB60E7
:10220C007B68404A934213D07B683F4A93420DD07F
:10221C007B683E4A934207D07B683D4A934201D18A
:10222C00032306E0042304E0022302E0012300E080
:10223C0000237A6A02F0030292009340FA68134377
:10224C00FB602F497B6A9B080233FA6841F8232014
:10225C003B685B6803F48013002B06D02D4B9A6807
:10226C002C49BB6913438B6006E02A4B9A68BB6907
:10227C00DB43284913408B603B685B6803F4001315
:10228C00002B06D0234BDA682249BB691343CB6081
:10229C0006E0204BDA68BB69DB431E491340CB6078
:1022AC003B685B6803F40033002B06D0194B5A686B
:1022BC001849BB6913434B6006E0164B5A68BB695F
:1022CC00DB43144913404B603B685B6803F4803379
:1022DC00002B21D00F4B1A680E49BB6913430B60BE
:1022EC0021E000BF0000321000003110000022106D
:1022FC00000021100000121000001110001002400C
:10230C000000014000080140000C01400010014099
:10231C0000140140000401400B4B1A68BB69DB43FD
:10232C00094913400B607B6A01337B623B681A6876
:10233C007B6A22FA03F3002B7FF48EAE00BF00BF42
:10234C002C37BD4680BC70470004014080B485B07A
:10235C0000AF78600B467B807B689A687B88134063
:10236C00002B02D00123FB7301E00023FB73FB7BEA
:10237C0018461437BD4680BC704780B483B000AF9C
:10238C0078600B467B8013467B707B78002B03D0E8
:10239C007A887B681A6103E07B881A047B681A616F
:1023AC0000BF0C37BD4680BC704780B485B000AF11
:1023BC0078600B467B807B68DB68FB607A88FB6807
:1023CC0013401A04FB68D9437B880B401A437B6883
:1023DC001A6100BF1437BD4680BC704780B584B00D
:1023EC0000AF78607B68002B01D101232BE17B6867
:1023FC0093F83D30DBB2002B06D17B68002283F8CA
:10240C003C207868FFF770FA7B68242283F83D2023
:10241C007B681B681A687B681B6822F001021A60D3
:10242C007B681B681A687B681B6842F400421A6060
:10243C007B681B681A687B681B6822F400421A6070
:10244C0001F032F8F8607B685B68814A934207D8E8
:10245C00FB68804A934294BF01230023DBB206E061
:10246C00FB687D4A934294BF01230023DBB2002B0F
:10247C0001D00123E7E0FB68784AA2FB03239B0C05
:10248C00BB607B681B685B6823F03F017B681B6843
:10249C00BA680A435A607B681B681B6A23F03F01C9
:1024AC007B685B686A4A934202D8BB68013309E0D7
:1024BC00BB684FF4967202FB03F3694AA2FB032339
:1024CC009B0901337A6812680B4313627B681B68A3
:1024DC00DB6923F44F4222F0FF027B685B685C49A6
:1024EC008B4219D8FB68591E7B685B685B00B1FB9B
:1024FC00F3F3591C40F6FC730B40002B0AD0FB681D
:10250C00591E7B685B685B00B1FBF3F30133C3F3CB
:10251C000B0351E004234FE07B689B68002B11D127
:10252C00FB68581E7B6859680B465B000B44B0FB7C
:10253C00F3F30133C3F30B03002B0CBF0123002374
:10254C00DBB212E0FB68581E7B6859680B469B0097
:10255C000B4499000B44B0FBF3F30133C3F30B03AF
:10256C00002B0CBF01230023DBB2002B01D0012375
:10257C0022E07B689B68002B0ED1FB68581E7B68A1
:10258C0059680B465B000B44B0FBF3F30133C3F308
:10259C000B0343F400430FE0FB68581E7B6859683B
:1025AC000B469B000B4499000B44B0FBF3F3013337
:1025BC00C3F30B0343F44043796809681343CB61BD
:1025CC007B681B681B6823F0C0017B68DA697B6839
:1025DC001B6A1A437B681B680A431A607B681B687A
:1025EC009B6823F4034323F0FF037A6811697A682C
:1025FC00D26811437A6812680B4393607B681B683E
:10260C00DB6823F0FF017B685A697B689B691A437E
:10261C007B681B680A43DA607B681B681A687B68F6
:10262C001B6842F001021A607B6800221A647B6806
:10263C00202283F83D207B6800221A637B680022ED
:10264C0083F83E20002318461037BD4680BD00BFDE
:10265C00A08601007F841E00FF083D0083DE1B4323
:10266C00D34D621080B588B002AFF8607A601A461C
:10267C000B467B8113463B81FFF7F6FA7861FB68CA
:10268C0093F83D30DBB2202B40F0E0807B69009367
:10269C00192301227049F86800F064F90346002BF5
:1026AC0001D00223D3E0FB6893F83C30012B01D11D
:1026BC000223CCE0FB68012283F83C20FB681B68FA
:1026CC001B6803F00103012B07D0FB681B681A6819
:1026DC00FB681B6842F001021A60FB681B681A68F1
:1026EC00FB681B6822F400621A60FB68212283F8E5
:1026FC003D20FB68102283F83E20FB6800221A6400
:10270C00FB687A685A62FB683A895A85FB685B8D6C
:10271C009AB2FB681A85FB68504ADA6279897B6940
:10272C003A6AF86800F09CF80346002B01D00123AC
:10273C008DE000233B61FB681B685B693B61FB68B8
:10274C001B689B693B613B6966E07A69396AF8688A
:10275C0000F022FA0346002B0DD0FB681B6C042BF7
:10276C0007D1FB681B681A68FB681B6842F400728F
:10277C001A6001236BE0FB685B6A1A78FB681B68C4
:10278C001A61FB685B6A5A1CFB685A62FB685B8DBA
:10279C009BB2013B9AB2FB685A85FB681B8D013BCF
:1027AC009AB2FB681A85FB681B685B6903F004032B
:1027BC00042B1BD1FB681B8D002B17D0FB685B6AAD
:1027CC001A78FB681B681A61FB685B6A5A1CFB6809
:1027DC005A62FB685B8D9BB2013B9AB2FB685A85CF
:1027EC00FB681B8D013B9AB2FB681A857A69396AC2
:1027FC00F86800F019FA0346002B0DD0FB681B6C2F
:10280C00042B07D1FB681B681A68FB681B6842F431
:10281C0000721A6001231AE0FB681B8D002B94D107
:10282C00FB681B681A68FB681B6842F400721A602C
:10283C00FB68202283F83D20FB68002283F83E20B1
:10284C00FB68002283F83C20002300E0022318469A
:10285C001837BD4680BD00BF020010000000FFFF0E
:10286C0080B588B002AFF8607A603B600B467B8124
:10287C00FB68DB6A7B617B69082B06D07B69012BCB
:10288C0003D07B6913F5803F08D1FB681B681A687D
:10289C00FB681B6842F480721A600BE0FB681B6BD0
:1028AC00122B07D1FB681B681A68FB681B6842F483
:1028BC0080721A603B6800937B6800224FF0011114
:1028CC00F86800F04FF80346002B0DD0FB681B682E
:1028DC001B6803F48073B3F5807F03D1FB684FF45E
:1028EC0000721A64032335E0FB681B69B3F5804F53
:1028FC0008D17B89DBB21A46FB681B6802F0FE022A
:10290C001A611BE07B89DB11DBB203F00603DBB23F
:10291C0063F00F03DAB2FB681B681A613B687A68D4
:10292C000E49F86800F098F80346002B01D00123FB
:10293C0010E07B89DAB2FB681B681A613B687A6825
:10294C000749F86800F088F80346002B01D00123F2
:10295C0000E0002318461837BD4680BD0800010072
:10296C000200010080B584B000AFF860B9603B6034
:10297C001346FB7148E03B68B3F1FF3F44D0FFF7CF
:10298C0073F90246BB69D31A3A689A4202D33B6880
:10299C00002B39D1BB681B0CDBB2012B0DD1FB68B2
:1029AC001B685B69DA43BB6813409BB2002B0CBFFE
:1029BC0001230023DBB21A460CE0FB681B689B6901
:1029CC00DA43BB6813409BB2002B0CBF01230023DE
:1029DC00DBB21A46FB799A4216D1FB6800221A63C5
:1029EC00FB68202283F83D20FB68002283F83E2000
:1029FC00FB681B6C43F02002FB681A64FB68002226
:102A0C0083F83C20012323E0BB681B0CDBB2012BB9
:102A1C000DD1FB681B685B69DA43BB6813409BB242
:102A2C00002B0CBF01230023DBB21A460CE0FB6821
:102A3C001B689B69DA43BB6813409BB2002B0CBF2D
:102A4C0001230023DBB21A46FB799A4293D0002370
:102A5C0018461037BD4680BD80B584B000AFF86015
:102A6C00B9607A603B6071E0FB681B685B6903F4DA
:102A7C008063B3F5806F23D1FB681B681A68FB6811
:102A8C001B6842F400721A60FB681B686FF480626A
:102A9C005A61FB6800221A63FB68202283F83D20F0
:102AAC00FB68002283F83E20FB681B6C43F0040299
:102ABC00FB681A64FB68002283F83C20012367E062
:102ACC007B68B3F1FF3F41D0FFF7CEF802463B687D
:102ADC00D31A7A689A4202D37B68002B36D1BB6832
:102AEC001B0CDBB2012B0CD1FB681B685B69DA4356
:102AFC00BB6813409BB2002B14BF01230023DBB235
:102B0C000BE0FB681B689B69DA43BB6813409BB204
:102B1C00002B14BF01230023DBB2002B16D0FB6863
:102B2C0000221A63FB68202283F83D20FB680022F8
:102B3C0083F83E20FB681B6C43F02002FB681A6490
:102B4C00FB68002283F83C20012321E0BB681B0CAE
:102B5C00DBB2012B0CD1FB681B685B69DA43BB68E9
:102B6C0013409BB2002B14BF01230023DBB20BE0FC
:102B7C00FB681B689B69DA43BB6813409BB2002B54
:102B8C0014BF01230023DBB2002B7FF46DAF0023B5
:102B9C0018461037BD4680BD80B584B000AFF860D4
:102BAC00B9607A6034E0F86800F086F80346002BD0
:102BBC0001D0012334E0BB68B3F1FF3F28D0FFF70D
:102BCC0053F802467B68D31ABA689A4202D3BB68A0
:102BDC00002B1DD1FB681B685B6903F08003802B05
:102BEC0016D0FB6800221A63FB68202283F83D2074
:102BFC00FB68002283F83E20FB681B6C43F020022C
:102C0C00FB681A64FB68002283F83C20012307E070
:102C1C00FB681B685B6903F08003802BC3D1002326
:102C2C0018461037BD4680BD80B584B000AFF86043
:102C3C00B9607A6034E0F86800F03EF80346002B87
:102C4C0001D0012334E0BB68B3F1FF3F28D0FFF77C
:102C5C000BF802467B68D31ABA689A4202D3BB6857
:102C6C00002B1DD1FB681B685B6903F00403042B6C
:102C7C0016D0FB6800221A63FB68202283F83D20E3
:102C8C00FB68002283F83E20FB681B6C43F020029B
:102C9C00FB681A64FB68002283F83C20012307E0E0
:102CAC00FB681B685B6903F00403042BC3D100238E
:102CBC0018461037BD4680BD80B483B000AF786035
:102CCC007B681B685B6903F48063B3F5806F1BD171
:102CDC007B681B686FF480625A617B6800221A6300
:102CEC007B68202283F83D207B68002283F83E20FD
:102CFC007B681B6C43F004027B681A647B680022BF
:102D0C0083F83C20012300E0002318460C37BD4615
:102D1C0080BC704780B586B000AF78607B68002BB4
:102D2C0001D1012372E27B681B6803F00103002BC5
:102D3C0000F08780924B5B6803F00C03042B0CD0E3
:102D4C008F4B5B6803F00C03082B12D18C4B5B6828
:102D5C0003F48033B3F5803F0BD1894B1B6803F42C
:102D6C000033002B6CD07B685B68002B68D101238F
:102D7C004CE27B685B68B3F5803F06D1804B1B68E7
:102D8C007F4A43F4803313602EE07B685B68002B32
:102D9C000CD17B4B1B687A4A23F480331360784B3D
:102DAC001B68774A23F4802313601DE07B685B6803
:102DBC00B3F5A02F0CD1724B1B68714A43F48023DE
:102DCC0013606F4B1B686E4A43F4803313600BE047
:102DDC006B4B1B686A4A23F480331360684B1B6887
:102DEC00674A23F4802313607B685B68002B13D045
:102DFC00FEF73AFF386108E0FEF736FF02463B6902
:102E0C00D31A642B01D9032300E25D4B1B6803F436
:102E1C000033002BF0D014E0FEF726FF386108E0F9
:102E2C00FEF722FF02463B69D31A642B01D9032318
:102E3C00ECE1534B1B6803F40033002BF0D100E0A2
:102E4C0000BF7B681B6803F00203002B63D04C4B64
:102E5C005B6803F00C03002B0BD0494B5B6803F051
:102E6C000C03082B1CD1464B5B6803F48033002BFE
:102E7C0016D1434B1B6803F00203002B05D07B6873
:102E8C001B69012B01D00123C0E13D4B1B6823F0D2
:102E9C00F8027B685B69DB00394913430B603AE04D
:102EAC007B681B69002B20D0364B01221A60FEF781
:102EBC00DBFE386108E0FEF7D7FE02463B69D31A09
:102ECC00022B01D90323A1E12D4B1B6803F0020354
:102EDC00002BF0D02A4B1B6823F0F8027B685B694F
:102EEC00DB00274913430B6015E0264B00221A60C8
:102EFC00FEF7BAFE386108E0FEF7B6FE02463B6903
:102F0C00D31A022B01D9032380E11D4B1B6803F05C
:102F1C000203002BF0D17B681B6803F00803002B25
:102F2C003AD07B689B69002B19D0174B01221A6091
:102F3C00FEF79AFE386108E0FEF796FE02463B6902
:102F4C00D31A022B01D9032360E10D4B5B6A03F00A
:102F5C000203002BF0D0012000F0CEFA1CE00A4B4B
:102F6C0000221A60FEF780FE38610FE0FEF77CFE4F
:102F7C0002463B69D31A022B08D9032346E100BF52
:102F8C00001002400000424280044242924B5B6AB5
:102F9C0003F00203002BE9D17B681B6803F00403E8
:102FAC00002B00F0A6800023FB758B4BDB6903F034
:102FBC008053002B0DD1884BDB69874A43F080533B
:102FCC00D361854BDB6903F08053BB60BB68012385
:102FDC00FB75824B1B6803F48073002B18D17F4B5D
:102FEC001B687E4A43F480731360FEF73DFE386124
:102FFC0008E0FEF739FE02463B69D31A642B01D96F
:10300C00032303E1754B1B6803F48073002BF0D092
:10301C007B68DB68012B06D16F4B1B6A6E4A43F051
:10302C00010313622DE07B68DB68002B0CD16A4B2B
:10303C001B6A694A23F001031362674B1B6A664AD9
:10304C0023F0040313621CE07B68DB68052B0CD1B6
:10305C00614B1B6A604A43F0040313625E4B1B6AAC
:10306C005D4A43F0010313620BE05B4B1B6A5A4A47
:10307C0023F001031362584B1B6A574A23F00403D5
:10308C0013627B68DB68002B15D0FEF7EDFD386111
:10309C000AE0FEF7E9FD02463B69D31A41F2883299
:1030AC00934201D90323B1E04B4B1B6A03F002039B
:1030BC00002BEED014E0FEF7D7FD38610AE0FEF7E6
:1030CC00D3FD02463B69D31A41F28832934201D9AF
:1030DC0003239BE0404B1B6A03F00203002BEED151
:1030EC00FB7D012B05D13C4BDB693B4A23F0805324
:1030FC00D3617B68DB69002B00F08780364B5B6803
:10310C0003F00C03082B61D07B68DB69022B46D1E2
:10311C00334B00221A60FEF7A7FD386108E0FEF77A
:10312C00A3FD02463B69D31A022B01D903236DE0A0
:10313C00294B1B6803F00073002BF0D17B681B6AD2
:10314C00B3F5803F08D1244B5B6823F400327B68D5
:10315C009B68214913434B601F4B5B6823F474122B
:10316C007B68196A7B685B6A0B431B4913434B6092
:10317C001B4B01221A60FEF777FD386108E0FEF761
:10318C0073FD02463B69D31A022B01D903233DE0A0
:10319C00114B1B6803F00073002BF0D035E0104B83
:1031AC0000221A60FEF760FD386108E0FEF75CFD56
:1031BC0002463B69D31A022B01D9032326E0064BA6
:1031CC001B6803F00073002BF0D11EE07B68DB69F9
:1031DC00012B07D1012319E00010024000700040C0
:1031EC00600042420B4B5B68FB60FB6803F480326F
:1031FC007B681B6A9A4206D1FB6803F470127B68E9
:10320C005B6A9A4201D0012300E00023184618376C
:10321C00BD4680BD0010024080B584B000AF786020
:10322C0039607B68002B01D10123D0E06A4B1B680D
:10323C0003F007033A689A4210D9674B1B6823F0D6
:10324C00070265493B6813430B60634B1B6803F033
:10325C0007033A689A4201D00123B8E07B681B68E7
:10326C0003F00203002B20D07B681B6803F00403DF
:10327C00002B05D0594B5B68584A43F4E06353600C
:10328C007B681B6803F00803002B05D0534B5B686D
:10329C00524A43F460535360504B5B6823F0F00286
:1032AC007B689B684D4913434B607B681B6803F03C
:1032BC000103002B40D07B685B68012B07D1474B87
:1032CC001B6803F40033002B15D101237FE07B68CE
:1032DC005B68022B07D1414B1B6803F00073002B7A
:1032EC0009D1012373E03D4B1B6803F00203002B53
:1032FC0001D101236BE0394B5B6823F003027B683F
:10330C005B68364913434B60FEF7AEFCF8600AE08D
:10331C00FEF7AAFC0246FB68D31A41F288329342AC
:10332C0001D9032353E02D4B5B6803F00C027B683F
:10333C005B689B009A42EBD1274B1B6803F0070399
:10334C003A689A4210D2244B1B6823F00702224998
:10335C003B6813430B60204B1B6803F007033A6870
:10336C009A4201D0012332E07B681B6803F004030E
:10337C00002B08D0194B5B6823F4E0627B68DB6898
:10338C00164913434B607B681B6803F00803002B42
:10339C0009D0124B5B6823F460527B681B69DB001D
:1033AC000E4913434B6000F021F802460B4B5B684F
:1033BC001B0903F00F030A49CB5C22FA03F3094AF9
:1033CC001360094B1B681846FEF70CFC00231846CB
:1033DC001037BD4680BD00BF0020024000100240E7
:1033EC00885400087C0000208000002080B487B046
:1033FC0000AF0023FB600023BB6000237B61002334
:10340C007B6000233B611E4B5B68FB60FB6803F039
:10341C000C03042B02D0082B03D027E0194B3B6183
:10342C0027E0FB689B0C03F00F03174AD35C7B600F
:10343C00FB6803F48033002B10D0114B5B685B0CE2
:10344C0003F00103114AD35CBB607B680D4A03FB9C
:10345C0002F2BB68B2FBF3F37B6104E07B680C4ABD
:10346C0002FB03F37B617B693B6102E0054B3B6133
:10347C0000BF3B6918461C37BD4680BC704700BF77
:10348C000010024000127A00A0540008B05400084A
:10349C0000093D0080B400AF024B1B681846BD46C6
:1034AC0080BC70477C00002080B500AFFFF7F2FFB6
:1034BC000246054B5B681B0A03F007030349CB5C10
:1034CC0022FA03F3184680BD0010024098540008FD
:1034DC0080B500AFFFF7DEFF0246054B5B68DB0AE9
:1034EC0003F007030349CB5C22FA03F3184680BDB3
:1034FC00001002409854000880B485B000AF78608A
:10350C000A4B1B680A4AA2FB03235B0A7A6802FB7C
:10351C0003F3FB6000BFFB685A1EFA60002BF9D165
:10352C0000BF00BF1437BD4680BC70477C00002034
:10353C00D34D621080B582B000AF78607B68002BF1
:10354C0001D1012341E07B6893F83D30DBB2002BC5
:10355C0006D17B68002283F83C207868FEF714FAC9
:10356C007B68022283F83D207B681A687B680433F1
:10357C001946104600F05CFA7B68012283F846205D
:10358C007B68012283F83E207B68012283F83F2070
:10359C007B68012283F840207B68012283F841205C
:1035AC007B68012283F842207B68012283F8432048
:1035BC007B68012283F844207B68012283F8452034
:1035CC007B68012283F83D20002318460837BD464E
:1035DC0080BD000080B485B000AF78607B6893F844
:1035EC003D30DBB2012B01D001233AE07B68022293
:1035FC0083F83D207B681B68DA687B681B6842F0A7
:10360C000102DA607B681B68184A93420ED07B6813
:10361C001B68B3F1804F09D07B681B68144A934236
:10362C0004D07B681B68134A934211D17B681B68DA
:10363C009B6803F00703FB60FB68062B10D07B68CC
:10364C001B681A687B681B6842F001021A6007E06D
:10365C007B681B681A687B681B6842F001021A6061
:10366C00002318461437BD4680BC7047002C01401F
:10367C00000400400008004080B584B000AF7860C2
:10368C007B681B68DB68FB607B681B681B69BB6025
:10369C00BB6803F00203002B20D0FB6803F002038D
:1036AC00002B1BD07B681B686FF002021A617B68D1
:1036BC0001221A777B681B689B6903F00303002BBC
:1036CC0003D0786800F098F905E0786800F08BF981
:1036DC00786800F09AF97B6800221A77BB6803F0CF
:1036EC000403002B20D0FB6803F00403002B1BD039
:1036FC007B681B686FF004021A617B6802221A77E0
:10370C007B681B689B6903F44073002B03D07868BB
:10371C0000F072F905E0786800F065F9786800F05F
:10372C0074F97B6800221A77BB6803F00803002B3E
:10373C0020D0FB6803F00803002B1BD07B681B68B0
:10374C006FF008021A617B6804221A777B681B6889
:10375C00DB6903F00303002B03D0786800F04CF90D
:10376C0005E0786800F03FF9786800F04EF97B6866
:10377C0000221A77BB6803F01003002B20D0FB68E3
:10378C0003F01003002B1BD07B681B686FF010023A
:10379C001A617B6808221A777B681B68DB6903F463
:1037AC004073002B03D0786800F026F905E07868A8
:1037BC0000F019F9786800F028F97B6800221A7774
:1037CC00BB6803F00103002B0CD0FB6803F0010372
:1037DC00002B07D07B681B686FF001021A617868B8
:1037EC00FDF7BAFDBB6803F08003002B0CD0FB681F
:1037FC0003F08003002B07D07B681B686FF08002FE
:10380C001A61786800F07FFABB6803F04003002B64
:10381C000CD0FB6803F04003002B07D07B681B68BF
:10382C006FF040021A61786800F0F8F8BB6803F09A
:10383C002003002B0CD0FB6803F02003002B07D0D7
:10384C007B681B686FF020021A61786800F052FAEE
:10385C0000BF1037BD4680BD80B584B000AF786026
:10386C0039600023FB737B6893F83C30012B01D14A
:10387C000223B4E07B68012283F83C207B6802229F
:10388C0083F83D207B681B689B68BB60BB6823F09A
:10389C007703BB60BB6823F47F43BB607B681B680A
:1038AC00BA689A603B681B68B3F5005F3ED0B3F50D
:1038BC00005F00F28780B3F5805F00F08680B3F57F
:1038CC00805F7FD8702B1AD0702B7BD8602B50D098
:1038DC00602B77D8502B3CD0502B73D8402B58D022
:1038EC00402B6FD8302B64D0302B6BD8202B60D072
:1038FC00202B67D8002B5CD0102B5AD062E07B6851
:10390C0018683B6899683B685A683B68DB6800F04C
:10391C0074F97B681B689B68BB60BB6843F07703DA
:10392C00BB607B681B68BA689A604FE07B6818685C
:10393C003B6899683B685A683B68DB6800F05DF946
:10394C007B681B689A687B681B6842F480429A60AB
:10395C003CE07B6818683B6859683B68DB681A4632
:10396C0000F0D4F87B681B685021184600F02BF946
:10397C002CE07B6818683B6859683B68DB681A4622
:10398C0000F0F2F87B681B686021184600F01BF908
:10399C001CE07B6818683B6859683B68DB681A4612
:1039AC0000F0B4F87B681B684021184600F00BF956
:1039BC000CE07B681A683B681B681946104600F0DF
:1039CC0002F903E00123FB7300E000BF7B680122D6
:1039DC0083F83D207B68002283F83C20FB7B184653
:1039EC001037BD4680BD80B483B000AF786000BF97
:1039FC000C37BD4680BC704780B483B000AF786094
:103A0C0000BF0C37BD4680BC704780B483B000AF9C
:103A1C00786000BF0C37BD4680BC704780B483B063
:103A2C0000AF786000BF0C37BD4680BC704700000B
:103A3C0080B485B000AF786039607B681B68FB6030
:103A4C007B682F4A93420BD07B68B3F1804F07D031
:103A5C007B682C4A934203D07B682B4A934208D153
:103A6C00FB6823F07003FB603B685B68FA681343E8
:103A7C00FB607B68224A93420BD07B68B3F1804F8A
:103A8C0007D07B681F4A934203D07B681E4A93423F
:103A9C0008D1FB6823F44073FB603B68DB68FA6871
:103AAC001343FB60FB6823F080023B685B691343A4
:103ABC00FB607B68FA681A603B689A687B68DA621C
:103ACC003B681A687B689A627B680D4A934203D103
:103ADC003B681A697B681A637B6801225A617B68B0
:103AEC001B6903F00103002B05D07B681B6923F0D5
:103AFC0001027B681A6100BF1437BD4680BC704759
:103B0C00002C0140000400400008004080B487B045
:103B1C0000AFF860B9607A60FB681B6A7B61FB6878
:103B2C001B6A23F00102FB681A62FB689B693B610C
:103B3C003B6923F0F0033B617B681B013A6913433B
:103B4C003B617B6923F00A037B617A69BB68134391
:103B5C007B61FB683A699A61FB687A691A6200BFFB
:103B6C001C37BD4680BC704780B487B000AFF8608E
:103B7C00B9607A60FB681B6A7B61FB681B6A23F087
:103B8C001002FB681A62FB689B693B613B6923F47A
:103B9C0070433B617B681B033A6913433B617B6950
:103BAC0023F0A0037B61BB681B017A6913437B6123
:103BBC00FB683A699A61FB687A691A6200BF1C3724
:103BCC00BD4680BC704780B485B000AF786039606A
:103BDC007B689B68FB60FB6823F07003FB603A68B2
:103BEC00FB68134343F00703FB607B68FA689A6039
:103BFC0000BF1437BD4680BC704780B487B000AF9F
:103C0C00F860B9607A603B60FB689B687B617B699C
:103C1C0023F47F437B613B681A027B681A43BB68C1
:103C2C0013437A6913437B61FB687A699A6000BF1E
:103C3C001C37BD4680BC704780B485B000AF78603F
:103C4C0039607B6893F83C30012B01D1022346E0AC
:103C5C007B68012283F83C207B68022283F83D209C
:103C6C007B681B685B68FB607B681B689B68BB6040
:103C7C00FB6823F07003FB603B681B68FA68134316
:103C8C00FB607B681B68FA685A607B681B68164A85
:103C9C0093420ED07B681B68B3F1804F09D07B68D0
:103CAC001B68124A934204D07B681B68104A9342EB
:103CBC000CD1BB6823F08003BB603B685B68BA68BF
:103CCC001343BB607B681B68BA689A607B680122EF
:103CDC0083F83D207B68002283F83C2000231846A3
:103CEC001437BD4680BC7047002C014000040040D6
:103CFC000008004080B483B000AF786000BF0C3780
:103D0C00BD4680BC704780B483B000AF786000BF04
:103D1C000C37BD4680BC704780B582B000AF786070
:103D2C007B68002B01D1012342E07B6893F8413082
:103D3C00DBB2002B06D17B68002283F84020786828
:103D4C00FDF746FE7B68242283F841207B681B68C4
:103D5C00DA687B681B6822F40052DA60786800F03D
:103D6C00B7FD7B681B681A697B681B6822F490425C
:103D7C001A617B681B685A697B681B6822F02A02EF
:103D8C005A617B681B68DA687B681B6842F40052D6
:103D9C00DA607B6800225A647B68202283F8412019
:103DAC007B68202283F842207B6800225A63002320
:103DBC0018460837BD4680BD80B58AB002AFF860A2
:103DCC00B9603B601346FB8000237B61FB6893F872
:103DDC004130DBB2202B75D1BB68002B02D0FB88A5
:103DEC00002B01D101236EE0FB6800225A64FB68B2
:103DFC00212283F84120FDF737FF7861FB68FA88B0
:103E0C009A84FB68FA88DA84FB689B68B3F5805F58
:103E1C0008D1FB681B69002B04D10023FB61BB6834
:103E2C00BB6103E0BB68FB610023BB612EE03B6818
:103E3C0000937B6900228021F86800F01CFB03468C
:103E4C00002B05D0FB68202283F8412003233AE0A5
:103E5C00FB69002B0BD1BB691B881A46FB681B68DE
:103E6C00C2F308025A60BB690233BB6107E0FB690D
:103E7C001A78FB681B685A60FB690133FB61FB68AD
:103E8C00DB8C9BB2013B9AB2FB68DA84FB68DB8C5F
:103E9C009BB2002BCBD13B6800937B690022402165
:103EAC00F86800F0E8FA0346002B05D0FB682022E6
:103EBC0083F84120032306E0FB68202283F841208D
:103ECC00002300E0022318462037BD4680BD80B594
:103EDC0084B000AFF860B9601346FB80FB6893F8C0
:103EEC004230DBB2202B12D1BB68002B02D0FB88F6
:103EFC00002B01D101230BE0FB6800221A63FB8825
:103F0C001A46B968F86800F00FFB034600E002237C
:103F1C0018461037BD4680BD80B5BAB000AF78608A
:103F2C007B681B681B68C7F8E4307B681B68DB6820
:103F3C00C7F8E0307B681B685B69C7F8DC3000238E
:103F4C00C7F8D8300023C7F8D430D7F8E43003F0E2
:103F5C000F03C7F8D830D7F8D830002B0FD1D7F8CB
:103F6C00E43003F02003002B09D0D7F8E03003F045
:103F7C002003002B03D0786800F0ECFB5BE2D7F851
:103F8C00D830002B00F0DE80D7F8DC3003F00103D2
:103F9C00002B06D1D7F8E03003F49073002B00F01F
:103FAC00D180D7F8E43003F00103002B0BD0D7F805
:103FBC00E03003F48073002B05D07B685B6C43F01E
:103FCC0001027B685A64D7F8E43003F00403002B39
:103FDC000BD0D7F8DC3003F00103002B05D07B6845
:103FEC005B6C43F002027B685A64D7F8E43003F050
:103FFC000203002B0BD0D7F8DC3003F00103002BAD
:10400C0005D07B685B6C43F004027B685A64D7F87C
:10401C00E43003F00803002B11D0D7F8E03003F0A4
:10402C002003002B05D1D7F8DC3003F00103002B63
:10403C0005D07B685B6C43F008027B685A647B6834
:10404C005B6C002B00F0F281D7F8E43003F0200316
:10405C00002B08D0D7F8E03003F02003002B02D05F
:10406C00786800F077FB7B681B685B6903F04003A2
:10407C00002B14BF01230023DBB2C7F8D4307B68BC
:10408C005B6C03F00803002B03D1D7F8D430002B62
:10409C004FD0786800F081FA7B681B685B6903F08D
:1040AC004003002B41D07B681B681433C7F89C304D
:1040BC00D7F89C3053E8003FC7F89830D7F89830C1
:1040CC0023F04003C7F8D0307B681B681433D7F853
:1040DC00D020C7F8A820C7F8A430D7F8A410D7F878
:1040EC00A82041E80023C7F8A030D7F8A030002B57
:1040FC00D9D17B68DB6B002B13D07B68DB6B7E4AE2
:10410C005A637B68DB6B1846FDF724FF0346002BD4
:10411C0016D07B68DB6B5B6B7A68D26B104698476A
:10412C000EE0786800F093F90AE0786800F08FF9F7
:10413C0006E0786800F08BF97B6800225A6475E120
:10414C0000BF73E17B681B6B012B40F04F81D7F8EC
:10415C00E43003F01003002B00F04881D7F8E03076
:10416C0003F01003002B00F041810023BB607B683F
:10417C001B681B68BB607B681B685B68BB60BB68AB
:10418C007B681B685B6903F04003002B00F0B68072
:10419C007B68DB6B1B685B68A7F8BE30B7F8BE307A
:1041AC00002B00F045817B689B8DB7F8BE209A42AE
:1041BC0080F03E817B68B7F8BE20DA857B68DB6BCC
:1041CC009B69202B00F088807B681B680C33C7F838
:1041DC008830D7F8883053E8003FC7F88430D7F8D8
:1041EC00843023F48073C7F8B8307B681B680C33B9
:1041FC00D7F8B820C7F89420C7F89030D7F89010AB
:10420C00D7F8942041E80023C7F88C30D7F88C30CD
:10421C00002BD9D17B681B6814337B677B6F53E809
:10422C00003F3B673B6F23F00103C7F8B4307B685A
:10423C001B681433D7F8B420C7F88020FB67F96FDC
:10424C00D7F8802041E80023BB67BB6F002BE1D17E
:10425C007B681B6814333B663B6E53E8003FFB6581
:10426C00FB6D23F04003C7F8B0307B681B68143338
:10427C00D7F8B020FA66BB66B96EFA6E41E8002337
:10428C007B667B6E002BE3D17B68202283F8422077
:10429C007B6800221A637B681B680C33FB64FB6C25
:1042AC0053E8003FBB64BB6C23F01003C7F8AC3081
:1042BC007B681B680C33D7F8AC20BA657B65796DCD
:1042CC00BA6D41E800233B653B6D002BE3D17B6865
:1042DC00DB6B1846FDF703FE7B6802225A637B6892
:1042EC009A8D7B68DB8D9BB2D31A9BB2194678688A
:1042FC0000F0B6F89CE000BF6B4600087B689A8D16
:10430C007B68DB8D9BB2D31AA7F8CE307B68DB8D34
:10431C009BB2002B00F08E80B7F8CE30002B00F053
:10432C0089807B681B680C33BB63BB6B53E8003F15
:10433C007B637B6B23F49073C7F8C8307B681B6876
:10434C000C33D7F8C8207A643B64396C7A6C41E83A
:10435C000023FB63FB6B002BE3D17B681B681433DE
:10436C007B627B6A53E8003F3B623B6A23F00103AC
:10437C00C7F8C4307B681B681433D7F8C4203A6381
:10438C00FB62F96A3A6B41E80023BB62BB6A002B03
:10439C00E3D17B68202283F842207B6800221A63D9
:1043AC007B681B680C333B613B6953E8003FFB6047
:1043BC00FB6823F01003C7F8C0307B681B680C3314
:1043CC00D7F8C020FA61BB61B969FA6941E80023EA
:1043DC007B617B69002BE3D17B6802225A63B7F8BF
:1043EC00CE301946786800F03BF823E0D7F8E4307B
:1043FC0003F08003002B09D0D7F8E03003F08003E2
:10440C00002B03D0786800F03EF914E0D7F8E430C4
:10441C0003F04003002B0ED0D7F8E03003F040033C
:10442C00002B08D0786800F07DF904E000BF02E0B2
:10443C0000BF00E000BFE837BD4680BD80B483B04C
:10444C0000AF786000BF0C37BD4680BC704780B4AD
:10445C0083B000AF786000BF0C37BD4680BC70479E
:10446C0080B483B000AF78600B467B8000BF0C3704
:10447C00BD4680BC704780B586B000AFF860B960AF
:10448C003B601346FB713BE03B6AB3F1FF3F37D017
:10449C00FDF7EAFB02463B68D31A3A6A9A4202D30A
:1044AC003B6A002B01D103233AE0FB681B68DB68F5
:1044BC0003F00403002B23D0BB68802B20D0BB68F7
:1044CC00402B1DD0FB681B681B6803F00803082BEE
:1044DC0016D100237B61FB681B681B687B61FB6842
:1044EC001B685B687B617B69F86800F056F8FB68B9
:1044FC0008225A64FB68002283F8402001230FE055
:10450C00FB681B681A68BB681340BA689A420CBFF8
:10451C0001230023DBB21A46FB799A42B4D0002364
:10452C0018461837BD4680BD80B485B000AFF86022
:10453C00B9601346FB80FB68BA689A62FB68FA881C
:10454C009A85FB68FA88DA85FB6800225A64FB6856
:10455C00222283F84220FB681B69002B07D0FB68E2
:10456C001B68DA68FB681B6842F48072DA60FB68CF
:10457C001B685A69FB681B6842F001025A61FB68B0
:10458C001B68DA68FB681B6842F02002DA600023C3
:10459C0018461437BD4680BC704780B495B000AF48
:1045AC0078607B681B680C337B637B6B53E8003F44
:1045BC003B633B6B23F49073FB647B681B680C338D
:1045CC00FA6C3A64FB63F96B3A6C41E80023BB6309
:1045DC00BB6B002BE5D17B681B6814333B623B6AD9
:1045EC0053E8003FFB61FB6923F00103BB647B686C
:1045FC001B681433BA6CFA62BB62B96AFA6A41E896
:10460C0000237B627B6A002BE5D17B681B6B012B43
:10461C0019D17B681B680C33FB60FB6853E8003FC7
:10462C00BB60BB6823F010037B647B681B680C3396
:10463C007A6CBA617B617969BA6941E800233B61A4
:10464C003B69002BE5D17B68202283F842207B68F4
:10465C0000221A6300BF5437BD4680BC704780B53A
:10466C0084B000AF78607B685B6AFB60FB680022FB
:10467C00DA85FB680022DA84F868FFF7E8FE00BFF1
:10468C001037BD4680BD80B485B000AF78607B68C4
:10469C0093F84130DBB2212B3ED17B689B68B3F59C
:1046AC00805F14D17B681B69002B10D17B681B6A5F
:1046BC00FB60FB681B881A467B681B68C2F3080208
:1046CC005A607B681B6A9A1C7B681A6208E07B68DC
:1046DC001B6A591C7A6811621A787B681B685A60CD
:1046EC007B68DB8C9BB2013B9BB27A681946D18408
:1046FC00002B0FD17B681B68DA687B681B6822F083
:10470C008002DA607B681B68DA687B681B6842F0A1
:10471C004002DA60002300E0022318461437BD463D
:10472C0080BC704780B582B000AF78607B681B6836
:10473C00DA687B681B6822F04002DA607B68202212
:10474C0083F841207868FFF779FE00231846083774
:10475C00BD4680BD80B58CB000AF78607B6893F8A7
:10476C004230DBB2222B40F0AE807B689B68B3F505
:10477C00805F17D17B681B69002B13D10023FB6270
:10478C007B689B6ABB627B681B685B689BB2C3F3EC
:10479C0008039AB2BB6A1A807B689B6A9A1C7B6876
:1047AC009A6226E07B689B6AFB620023BB627B6893
:1047BC009B68B3F5805F07D07B689B68002B0AD1A0
:1047CC007B681B69002B06D17B681B685B68DAB2BF
:1047DC00FB6A1A7008E07B681B685B68DBB203F04D
:1047EC007F03DAB2FB6A1A707B689B6A5A1C7B687F
:1047FC009A627B68DB8D9BB2013B9BB27A6819464F
:10480C00D185002B5DD17B681B68DA687B681B68DF
:10481C0022F02002DA607B681B68DA687B681B6810
:10482C0022F48072DA607B681B685A697B681B68AB
:10483C0022F001025A617B68202283F842207B68B7
:10484C0000225A637B681B6B012B35D17B680022DD
:10485C001A637B681B680C337B617B6953E8003FF0
:10486C003B613B6923F010037B627B681B680C3354
:10487C007A6A3A62FB61F9693A6A41E80023BB61E2
:10488C00BB69002BE5D17B681B681B6803F0100328
:10489C00102B0AD10023FB607B681B681B68FB6034
:1048AC007B681B685B68FB60FB687B689B8D1946AB
:1048BC007868FFF7D5FD02E07868FCF759FD002316
:1048CC0002E0002300E0022318463037BD4680BDCD
:1048DC0080B584B000AF78607B681B681B6923F4DB
:1048EC0040517B68DA687B681B680A431A617B68F5
:1048FC009A687B681B691A437B685B691343BB60CE
:10490C007B681B68DB6823F4B05323F00C037A68D4
:10491C001268B9680B43D3607B681B685B6923F42E
:10492C0040717B689A697B681B680A435A617B6893
:10493C001B682C4A934203D1FEF7CAFDF86002E0D3
:10494C00FEF7B2FDF860FA6813469B0013449A0018
:10495C001A447B685B689B00B2FBF3F3224AA2FB10
:10496C0003235B091901FA6813469B0013449A0050
:10497C001A447B685B689B00B2FBF3F21A4BA3FBF7
:10498C0002035B09642000FB03F3D31A1B013233CF
:10499C00154AA2FB03235B0903F0F0031944FA68E0
:1049AC0013469B0013449A001A447B685B689B0077
:1049BC00B2FBF3F20C4BA3FB02035B09642000FB7C
:1049CC0003F3D31A1B013233074AA2FB03235B09FF
:1049DC0003F00F027B681B680A449A6000BF103713
:1049EC00BD4680BD003801401F85EB510EB46FF001
:1049FC00004100B59CB01DAB02900690079104914C
:104A0C000848094953F8042B0591006802A9019341
:104A1C0000F0A2F90022029B1A701CB05DF804EBA6
:104A2C0003B07047880000200802FFFF03460244D1
:104A3C00934200D1704703F8011BF9E7024610B509
:104A4C00147813460132002CFAD1013B11F8012BDA
:104A5C0003F8012F002AF9D110BD0000014B186892
:104A6C00704700BF8800002070B500260C4D0D4C1F
:104A7C00641BA410A64209D100F078FC00260A4D54
:104A8C000A4C641BA410A64205D170BD55F8043B1A
:104A9C0098470136EEE755F8043B98470136F2E7A4
:104AAC00F0540008F0540008F0540008F4540008C6
:104ABC007047704738B50546002940D051F8043C82
:104ACC000C1F002BB8BFE41800F0DEF81C4A13686A
:104ADC0033B9636014602846BDE8384000F0DAB89A
:104AEC00A34208D9206821188B4201BF19685B6862
:104AFC0009182160EDE71A465B680BB1A342FAD99D
:104B0C0011685018A0420BD1206801445018834200
:104B1C001160E0D118685B68084410605360DAE7F4
:104B2C0002D90C232B60D6E7206821188B4201BFD9
:104B3C0019685B680918216063605460CBE738BD65
:104B4C000C07002070B50F4E0C463168054611B9A4
:104B5C0000F0AAFB30602146284600F0A5FB431C60
:104B6C0003D14FF0FF34204670BDC41C24F0030465
:104B7C00A042F8D0211A284600F096FB0130F2D161
:104B8C00EFE700BF080700202DE9F843CD1C25F006
:104B9C00030508350C2D38BF0C25002D064601DB0E
:104BAC00A94204D90C2333600020BDE8F883DFF858
:104BBC00D48000F069F8D8F800301C4644BB294674
:104BCC003046FFF7BFFF431C044658D1D8F80040CD
:104BDC002746002F43D1002C4BD023683946304652
:104BEC0004EB030900F060FB814542D1216830469B
:104BFC006D1A2946FFF7A6FF01303AD023682B44E3
:104C0C002360D8F800305A6862BBC8F800700FE017
:104C1C002268521B20D40B2A17D96119A342256094
:104C2C0018BF5960636808BFC8F8001062514B6028
:104C3C00304600F02FF804F10B00231D20F0070084
:104C4C00C21A1CBF1B1AA350AFE76268A3420CBF69
:104C5C00C8F800205A60EBE723466468AEE73C4690
:104C6C007F68B6E71A465B68A342FBD1002353600A
:104C7C00DEE70C233046336000F00CF894E7056057
:104C8C00D6E700BF0C0700200148FFF711BF00BF9B
:104C9C00040700200148FFF70CBF00BF04070020E9
:104CAC002DE9F0471F468E688246BE420C46904660
:104CBC000B682DD8B1F90C2012F4906F26D06569D1
:104CCC00096905EB4505A3EB010905EBD5757B1CC3
:104CDC004B446D109D4238BF1D46530527D52946C0
:104CEC00FFF752FF064660B34A46216900F0FAFA14
:104CFC00A38923F4906343F08003A38126614E447F
:104D0C0026603E466561A5EB0905A560BE4200D94B
:104D1C003E4632464146206800F0ACFA0020A368BB
:104D2C009B1BA360236833442360BDE8F0872A46AD
:104D3C0000F0E6FA06460028E0D150462169FFF75C
:104D4C00B9FE0C23CAF80030A3894FF0FF3043F0B2
:104D5C004003A381E9E700002DE9F04F98468B89C9
:104D6C0007461B060D4614469DB010D50B6973B94A
:104D7C004021FFF709FF2860286130B90C233B6004
:104D8C004FF0FF301DB0BDE8F08F40236B61002366
:104D9C00099320238DF8293030234FF00109CDF8E9
:104DAC000C80DFF898818DF82A3023469A4613F848
:104DBC00012B0AB1252AF9D1BAEB040B0BD05B46B7
:104DCC00224629463846FFF76BFF013000F0A780DA
:104DDC00099A5A4409929AF80030002B00F09F80EF
:104DEC0000234FF0FF32CDE905230AF1010A0493A9
:104DFC0007938DF853301A935446052214F8011B6F
:104E0C004E4800F061FA049AD8B9D00644BF20236A
:104E1C008DF85330110744BF2B238DF853309AF87B
:104E2C0000302A2B15D0544600204FF00A0C079A5C
:104E3C00214611F8013B303B092B4BD9B0B10792FD
:104E4C0014E0A0EB080309FA03F31343A2460493FE
:104E5C00D2E7039B191D1B680391002BBBBF5B4260
:104E6C0042F0020207930793B8BF049223782E2BCB
:104E7C000AD163782A2B32D1039B02341A1D1B688A
:104E8C00039243EAE3730593DFF8B4A00322504680
:104E9C00217800F019FA38B14022049BA0EB0A00EB
:104EAC00824013430134049314F8011B0622254855
:104EBC008DF8281000F008FA002836D0224B1BBBC6
:104ECC00039B073323F0070308330393099B3344F5
:104EDC0009936AE70C4601200CFB0232A8E7002379
:104EEC004FF00A0C194601340593204610F8012B9B
:104EFC00303A092A03D9002BC6D00591C4E70446E1
:104F0C0001230CFB0121F0E703AB00932A46384642
:104F1C000E4B04A9AFF30080421C0646D6D1AB89D8
:104F2C005B063FF52DAF09982CE703AB00932A469F
:104F3C003846064B04A900F07DF8EDE7B2540008A2
:104F4C00B8540008BC54000800000000AD4C000828
:104F5C002DE9F047164698468A680B690746934236
:104F6C00B8BF1346336091F843200C46DDF820900F
:104F7C000AB1013333602368990642BF33680233A8
:104F8C003360256815F0060506D104F1190AE368AB
:104F9C0032689B1AAB422BDC94F843302268003BFE
:104FAC0018BF0123920630D44146384604F143021F
:104FBC00C847013023D02368226903F00603042B71
:104FCC0014BF002533684FF0000608BFE56804F1F4
:104FDC001A0408BFED1A54F8123C08BF25EAE5750F
:104FEC009342C4BF9B1AED18B5421AD1002008E0B9
:104FFC000123524641463846C847013003D14FF091
:10500C00FF30BDE8F0870135C1E73020E11881F8A9
:10501C0043005A1C94F845102244023382F8431082
:10502C00C2E70123224641463846C8470130E6D044
:10503C000136D9E72DE9FF470F7E9146782F804640
:10504C000C469A460C9E01F1430207D8622F0AD8EF
:10505C00002F00F0D380582F00F0BA8004F14206E4
:10506C0084F842703AE0A7F16303152BF6D801A13E
:10507C0051F823F0D9500008ED5000086950000891
:10508C00695000086950000869500008ED5000088C
:10509C006950000869500008695000086950000800
:1050AC00EF51000817510008A95100086950000879
:1050BC006950000811520008695000081751000887
:1050CC006950000869500008B151000833681A1D76
:1050DC001B68326004F1420684F8423001239EE0E2
:1050EC0033682068191D3160060601D51D6803E080
:1050FC004506FBD5B3F90050002D03DA2D236D4284
:10510C0084F843300A23594811E0216833680806B3
:10511C0053F8045B02D4490648BFADB26F2F33601D
:10512C0014BF0A2308235148002184F843106668F1
:10513C00002EA8BF2168A660A4BF21F00401216045
:10514C000DB9002E4BD01646B5FBF3F103FB1157EE
:10515C00C75D06F8017D2F46BB420D46F4D9082BDE
:10516C000BD12368DF0708D5236961689942DEBF3C
:10517C00302306F8013C06F1FF36921B22614B46A8
:10518C0021464046CDF800A003AAFFF7E1FE01300E
:10519C004AD14FF0FF3004B0BDE8F087236843F0EC
:1051AC00200323607827324884F8457023683168DF
:1051BC001F0651F8045B02D45F0648BFADB23160E4
:1051CC00D90744BF43F0200323601DB11023ABE784
:1051DC002648E9E7236823F020032360F6E7164608
:1051EC00BDE733682568181D616930602E061B68A1
:1051FC0001D5196002E06806FBD51980002316461C
:10520C002361BCE7336800211A1D32601E68626896
:10521C00304600F059F808B1801B60606368236168
:10522C00002384F84330AAE73246494640462369B6
:10523C00D0470130ADD023689B0713D4E068039BA3
:10524C009842B8BF1846A6E7012332464946404665
:10525C00D04701309DD00135E36803995B1AAB420E
:10526C00F2DCEBE7002504F11906F5E7C35400085E
:10527C00D4540008884210B501EB020402D98442D0
:10528C00234607D8431EA14208D011F8012B03F87E
:10529C00012FF8E7014602448A4200D110BD13F8F1
:1052AC00014D02F8014DF7E738B50023054D0446D2
:1052BC0008462B60FCF71EFC431C02D12B6803B183
:1052CC00236038BD00070020034610B5C9B2024464
:1052DC009342184601D1002003E0047801338C423C
:1052EC00F6D110BD0A44914200F1FF3300D1704752
:1052FC0010B511F8014B914203F8014FF9D110BDD3
:10530C002DE9F041804615460C4621B91146BDE801
:10531C00F041FFF739BC2AB9FFF7CCFB002420463B
:10532C00BDE8F08100F01AF88542064602D8B5EBCC
:10533C00500FF4D829464046FFF726FC07460028B4
:10534C00ECD0B5422A46214628BF3246FFF7CAFFA9
:10535C0021464046FFF7AEFB3C46E0E751F8043CE3
:10536C00181F002BBCBF0B58C0187047F8B500BFF6
:10537C00F8BC08BC9E467047F8B500BFF8BC08BC2A
:04538C009E46704782
:10539000204C313A2052454420256400204C313ABB
:1053A0002059454C4C4F572025640000204C313A81
:1053B00020475245454E2025640000004C323A20DB
:1053C00052454420256400004C323A2059454C4C4B
:1053D0004F572025640000004C323A204752454583
:1053E0004E20256400000000202D20000A0D000042
:1053F000204D414E4E55414C204D4F44450000003C
:1054000054494D45204C4546543A2025640000003F
:10541000202053455454494E472052454400000033
:10542000202053455454494E4720475245454E008D
:10543000202053455454494E472059454C4C4F5712
:105440000000000054494D453A202564000000004A
:105450000A0D000053484F572054494D45000000A5
:10546000454E44004D414E55414C00004155544F6E
:10547000000000003100000053594E5441582045AF
:1054800052524F520A0D00000000000000000000C0
:1054900001020304060708090000000001020304DA
:1054A00002030405060708090A0B0C0D0E0F101065
:1054B0000102232D302B2000686C4C006566674587
:1054C000464700303132333435363738394142437C
:1054D000444546003031323334353637383961622D
:0854E000636465660000000032
:0854E80064ACFF7F010000002D
:0454F000310100087E
:0454F4000D0100089E
:1054F80001000000010000000100000001000000A0
:10550800010000000100000001000000010000008F
:10551800010000000100000001000000010000007F
:10552800010000000100000001000000010000006F
:10553800010000000100000001000000010000005F
:1055480064000000640000006400000064000000C3
:105558006400000001000000320000001400000098
:105568001E0000000A0000001900000000127A0066
:1055780010000000010000008C0000200000000066
:10558800C805002030060020980600200000000012
:105598000000000000000000000000000000000003
:1055A80000000000000000000000000000000000F3
:1055B80000000000000000000000000000000000E3
:0855C8000000000000000000DB
:0400000508001B795B
:00000001FF
